:100000000A128A11FA2F00308A000408840A820733
:100010000034463455344C344C34213420344E347E
:100020006F34203453346C346F347434733400348C
:1000300053346D3461347234743420345034613448
:1000400072346B3469346E3467340034463472343D
:0A005000653465343A34203400347E
:1002E400710883120313C0007008BF000800831252
:1002F4000313A200FC01FC0A22080A128A117A22C2
:100304000800831203133F084004031991290715B9
:100314000130BF020030031CC003C00208000711F3
:100324000800F000831203130611861106127008E8
:10033400031D9E29061608007003031DA3298615B4
:1003440008000615080083120313A6002608031DDF
:10035400B1292508803E0A128A110122080083125D
:1003640003132508C03E0A128A1101220800F30172
:10037400F40171087402031DC12970087302031883
:1003840008001030F200F20BC52900000A30F30710
:100394000318F40A0030F407BB2983160313071269
:1003A4008312031307120830F000F00BD7298312CD
:1003B400031387150830F000F00BDE2983120313B2
:1003C40007160830F000F00BE52908008316031324
:1003D40007160830F000F00BED298312031387157C
:1003E4000830F000F00BF42983120313871108304E
:1003F400F000F00BFB298316031307120800831285
:100404000313A400FC0124080A128A117A220A1296
:100414008A110430831203132402031808000D30D8
:1004240083120313A300FB30A200A20B172AA30B11
:10043400172A0800F10071080319242A83120313F0
:100444000716272A8312031307120830F000F00B53
:10045400292A8312031387150830F000F00B302A81
:100464008312031387110830F000F00B372A0800B9
:100474008316031307128312031307160830F000C0
:10048400F00B422A8312031387150830F000F00B97
:10049400492A8312031307120830F000F00B502A84
:1004A4008312031387110830F000F00B572A080059
:1004B40083120313A400240884000A128A1103205F
:1004C4000A128A11003A03190800240884000A1247
:1004D4008A1103200A128A110A128A1179210A1236
:1004E4008A11013083120313A3002308A4075D2A91
:1004F400FD007C0883120313A0002008F7007D0888
:10050400A10004300310A10CFF3E031D842A21081E
:100514000F390A128A1195230A128A117C08831250
:100524000313A0002008F7007D080F390A128A116E
:1005340095230800F4008030F2007208F600F501FB
:10054400083075020318BC2A740876050A128A1149
:100554001C220A128A117608F2000310720CF300AE
:100564007308F6000130F2007208F50708307502CE
:10057400031CA62A0A128A11E8210800F400740850
:10058400840083130008031DD82A700884007208AD
:100594008000840A73088000710884008001840A42
:1005A4008001740884008001800A080074088400B3
:1005B40002300006031DE62A7108840064308000BE
:1005C400840A0030800008007408840003300006A8
:1005D400031D0800740884008001800A0800700864
:1005E400710403191E2BF501F50AF11B052B0130CB
:1005F4000310F00DF10DFF3E031DFA2A0130F40043
:100604007408F507F72A71087302031D0B2B700891
:100614007202031C132B7008F2027108031CF3030B
:10062400F30201300310F10CF00CFF3E031D142BF8
:100634000130F502031D052B7308F1007208F00068
:10064400080083120313A5000A302502031C412B62
:100654000A30F0000030F1002508A300A4012308AB
:10066400F2002408F3000A128A1159230A128A118B
:100674007008303E0A128A1179210A128A110A304E
:10068400F0000030F100831203132508A300A40135
:100694002308F2002408F3000A128A11F1220A1234
:1006A4008A117008303E0A128A1179210800F50176
:1006B400F601700871040319902BF701F70AF11B76
:1006C4006F2B01300310F00DF10DFF3E031D642B61
:1006D4000130F4007408F707612B01300310F50DA5
:1006E400F60DFF3E031D702B71087302031D7C2B56
:1006F40070087202031C852B7008F2027108031C37
:10070400F303F302751401300310F10CF00CFF3EF7
:10071400031D862B0130F702031D6F2B7608F100B1
:100724007508F0000800FA007A08F8000330031096
:10073400F80DFF3E031D992B0310780D770408383C
:10074400F9007908FB000A128A113A220A128A1166
:100754004E300A128A119C220A128A117B0804382C
:100764000A128A119C220A128A110A128A11CF21B2
:100774000A128A110330F800F80BBE2B0A128A11F0
:100784003A220A128A114E300A128A119C220A1243
:100794008A117B08FB390A128A119C220A128A11D7
:1007A4000A128A11CF210A128A115330F800F80B69
:1007B400D92B080083120313A90001300A128A11ED
:1007C40001220A128A110D3083120313A800FB3090
:1007D400A700A70BEB2BA80BEB2B83120313A5018C
:1007E40000300A128A11A5210A128A1110300A1245
:1007F4008A115A220A128A1183120313A5010130A5
:100804000A128A11A5210A128A11831203132908D4
:10081400031D112C01300A128A115A2208001E30BD
:100824000A128A115A220A128A11831203132908FE
:100834000A128A1123230A128A112F300A128A11EA
:1008440079210A128A110A300A128A112323080014
:10085400023083120313A7004530A600A930A50077
:10086400A50B322CA60B322CA70B322CF70103302C
:100874000A128A1195230A128A1121308312031352
:10088400A6007530A500A50B452CA60B452C4A2CBB
:10089400F70103300A128A1195230A128A112130B2
:1008A40083120313A6007530A500A50B572CA60BC5
:1008B400572C5C2CF70103300A128A1195230A1273
:1008C4008A11C73083120313A500682CA50B672C6B
:1008D4006B2CF70102300A128A1195230A128A112D
:1008E400C73083120313A500772CA50B762C7A2C22
:1008F40028300A128A1101220A128A110C300A12B3
:100904008A1101220A128A1106300A128A1101225E
:100914000A128A1101300A128A1101220A128A115A
:100924000D3083120313A600FB30A500A50B982CF1
:10093400A60B982C080083120313081008117508DD
:100944007604031DB32C77087804031DB32C82307E
:10095400FA00DD30F900F90BAD2CFA0BAD2CB22CFA
:1009640008004E307602213003197502031CBE2C98
:100974002030F5004E30F6004E3078022130031955
:100984007702031CC92C2030F7004E30F80075089C
:1009940076040319D02C83120313081477087804FF
:1009A4000319D72C83120313081575087604031D45
:1009B400E02C7808F1007708F0000C2D7708780413
:1009C400031DE92C7608F1007508F0003B2D78082A
:1009D4007602031DEF2C770875020318182D76088C
:1009E400F1007508F0000A128A11B9210A128A115D
:1009F4008312031308107509F9007609FA00F90A3D
:100A04000319FA0A77087907F00078080318780AB6
:100A14007A07F1000A128A11B9210A128A11831283
:100A2400031308117808A3007708542D7608780278
:100A3400031D1E2D750877020318442D7808F10054
:100A44007708F0000A128A11B9210A128A11831256
:100A5400031308117709F9007809FA00F90A031950
:100A6400FA0A75087907F00076080318760A7A07F7
:100A7400F1000A128A11B9210A128A11831203138E
:100A84000810512D7608F1007508F0000A128A1139
:100A9400B9210A128A118312031308100811760867
:100AA400A3007508A2002209F9002309FA00F90A33
:100AB4000319FA0A7908203EA0007A080318013EB7
:100AC4004E3EA1002108F1002008F0000A128A110C
:100AD400B92108000A3083120313AA002A08BA00B5
:100AE400B001B00AB101B10AB801B901DC30BB00F0
:100AF4000530BC00DC30BD000530BE00B401B501DA
:100B0400B601B701AC01AD01AE01AF0107308316E8
:100B140003139F008312031397019D01FF30831673
:100B240003138500E3308600E3308700FA30880041
:100B34000730890083120313850186018701880128
:100B4400831603138113831203130810081107116A
:100B54000A128A112A240A128A11831203133A08E8
:100B64000A128A11DC230A128A11831203133A0827
:100B74000A128A1193210A128A110530F0000030FA
:100B8400F1000A128A1172210A128A1100308312AA
:100B9400031306180130B200003086180130B30088
:100BA4003003031D122E3208031D122E3A080319B6
:100BB400092E0130BA023A080A128A11DC230A12F9
:100BC4008A11831203133A080A128A1193210A1212
:100BD4008A110530F0000030F1000A128A117221E6
:100BE4000A128A113B3083120313AA002A08F00068
:100BF4003430AB002B08F100DC30F2000530F30098
:100C040038300A128A11C0220A128A11122E1430A4
:100C1400F0000030F1000A128A1172210A128A11BE
:100C2400831203133103031D4D2E3308031D4D2E70
:100C34000A303A020318222E0130AA002A08BA0701
:100C44003A080A128A11DC230A128A118312031346
:100C54003A080A128A1193210A128A110830F00004
:100C64000030F1000A128A1172210A128A113D30F1
:100C740083120313AA002A08F0003630AB002B08B5
:100C8400F100DC30F2000530F30039300A128A1129
:100C9400C0220A128A11831203133208AA002A08F6
:100CA400B0003308AA002A08B1003B30AA002A0881
:100CB400F0003430AB002B08F100DC30F2000530DA
:100CC400F3005230F4000330F50038300A128A1170
:100CD400A4260A128A11710883120313AD00700846
:100CE400AC003D30AA002A08F0003630AB002B08D7
:100CF400F100DC30F2000530F3006630F400083017
:100D0400F50039300A128A11A4260A128A117108D0
:100D140083120313AF007008AE000A128A118321F4
:100D24000A128A11831203132D08F6002C08F50009
:100D34002F08F8002E08F7000A128A119D240A12BF
:100D44008A11C82DFC00FA01FB017C08840083137E
:100D540000080319F32F7C0884000003031D342FBB
:100D6400700884000008FA00840A0008FB00700878
:100D740084000008F600840A0008F700750877026A
:100D8400031DC62E740876020318EC2E7008840026
:100D94000008F600840A0008F70076080D3EF80003
:100DA40077080318013E003EF900700884007808B3
:100DB4008000840A79088000700884000008F60026
:100DC400840A0008F70077087502031D1E2F7608B1
:100DD40074021E2F700884000008F600840A0008BC
:100DE400F70077087502031DF92E760874020318BC
:100DF400272F700884000008F600840A0008F70012
:100E04007608F33EF80077080318013EFF3EF90028
:100E14007008840078088000840A790880007008CB
:100E240084000008F600840A0008F70075087702B9
:100E3400031D1E2F740876020318F52F7008840012
:100E440074088000840A7508E62F0230F6007C08D6
:100E54008400760880007108840064308000840A6D
:100E64000030E62F7C08840002300006031D6C2F3E
:100E74007508FB007408FA00710884000008F60085
:100E8400840A0008F7007608770403195F2F7108B5
:100E940084000008F600840A0008F7007608FF3E84
:100EA400F80077080318013EFF3EF900710884003A
:100EB40078088000840A7908E62F70088400740892
:100EC4008000840A750880000330F6007C088400E2
:100ED4007608E62F7C08840003300006031DF02FFB
:100EE400700884000008FA00840A0008FB007008F7
:100EF40084000008F600840A0008F70073087702EB
:100F0400031D862F720876020318AC2F7008840024
:100F14000008F600840A0008F70076080D3EF80081
:100F240077080318013E003EF90070088400780831
:100F34008000840A79088000700884000008F600A4
:100F4400840A0008F70077087302031DDE2F760871
:100F54007202DE2F700884000008F600840A00087C
:100F6400F70077087302031DB92F7608720203187D
:100F7400E82F700884000008F600840A0008F700CF
:100F84007608F33EF80077080318013EFF3EF900A7
:100F94007008840078088000840A7908800070084A
:100FA40084000008F600840A0008F700730877023A
:100FB400031DDE2F720876020318F52F70088400D3
:100FC40072088000840A73088000F52F7308FB0000
:100FD4007208FA007C0884008001F52F7C088400E4
:100FE4008001FA01FB017B08F1007A08F000080097
:0C0FF400BF01C00183010A128A116C2D9C
:02400E00723FFF
:00000001FF
